{
  "_format": "hh-sol-artifact-1",
  "contractName": "UnsafeDeletegatecall",
  "sourceName": "contracts/UnsafeDelegatecall.sol",
  "abi": [
    {
      "inputs": [
        {
          "internalType": "contract Lib",
          "name": "_lib",
          "type": "address"
        }
      ],
      "stateMutability": "nonpayable",
      "type": "constructor"
    },
    {
      "inputs": [],
      "name": "lib",
      "outputs": [
        {
          "internalType": "contract Lib",
          "name": "",
          "type": "address"
        }
      ],
      "stateMutability": "view",
      "type": "function"
    },
    {
      "inputs": [],
      "name": "owner",
      "outputs": [
        {
          "internalType": "address",
          "name": "",
          "type": "address"
        }
      ],
      "stateMutability": "view",
      "type": "function"
    }
  ],
  "bytecode": "0x608060405234801561001057600080fd5b506040516103373803806103378339818101604052810190610032919061012e565b336000806101000a81548173ffffffffffffffffffffffffffffffffffffffff021916908373ffffffffffffffffffffffffffffffffffffffff16021790555080600160006101000a81548173ffffffffffffffffffffffffffffffffffffffff021916908373ffffffffffffffffffffffffffffffffffffffff1602179055505061015b565b600080fd5b600073ffffffffffffffffffffffffffffffffffffffff82169050919050565b60006100e9826100be565b9050919050565b60006100fb826100de565b9050919050565b61010b816100f0565b811461011657600080fd5b50565b60008151905061012881610102565b92915050565b600060208284031215610144576101436100b9565b5b600061015284828501610119565b91505092915050565b6101cd8061016a6000396000f3fe608060405234801561001057600080fd5b50600436106100365760003560e01c80638da5cb5b1461003b5780639280123014610059575b600080fd5b610043610077565b6040516100509190610102565b60405180910390f35b61006161009b565b60405161006e919061017c565b60405180910390f35b60008054906101000a900473ffffffffffffffffffffffffffffffffffffffff1681565b600160009054906101000a900473ffffffffffffffffffffffffffffffffffffffff1681565b600073ffffffffffffffffffffffffffffffffffffffff82169050919050565b60006100ec826100c1565b9050919050565b6100fc816100e1565b82525050565b600060208201905061011760008301846100f3565b92915050565b6000819050919050565b600061014261013d610138846100c1565b61011d565b6100c1565b9050919050565b600061015482610127565b9050919050565b600061016682610149565b9050919050565b6101768161015b565b82525050565b6000602082019050610191600083018461016d565b9291505056fea26469706673582212205b217f40d8108bf7a19e2482cad960520aa12a91135cc8e5a7a21a34c33af34864736f6c63430008110033",
  "linkReferences": {},
  "deployedLinkReferences": {}
}