{
  "_format": "hh-sol-artifact-1",
  "contractName": "EtherStore",
  "sourceName": "contracts/EtherStore.sol",
  "abi": [
    {
      "inputs": [
        {
          "internalType": "address",
          "name": "",
          "type": "address"
        }
      ],
      "name": "balances",
      "outputs": [
        {
          "internalType": "uint256",
          "name": "",
          "type": "uint256"
        }
      ],
      "stateMutability": "view",
      "type": "function"
    },
    {
      "inputs": [],
      "name": "deposite",
      "outputs": [],
      "stateMutability": "payable",
      "type": "function"
    },
    {
      "inputs": [],
      "name": "getBalance",
      "outputs": [
        {
          "internalType": "uint256",
          "name": "",
          "type": "uint256"
        }
      ],
      "stateMutability": "view",
      "type": "function"
    },
    {
      "inputs": [
        {
          "internalType": "uint256",
          "name": "_amount",
          "type": "uint256"
        }
      ],
      "name": "withdraw",
      "outputs": [],
      "stateMutability": "nonpayable",
      "type": "function"
    }
  ],
  "bytecode": "0x608060405234801561001057600080fd5b50610553806100206000396000f3fe60806040526004361061003f5760003560e01c806312065fe01461004457806327e235e31461006f5780632e1a7d4d146100ac578063a50ec326146100d5575b600080fd5b34801561005057600080fd5b506100596100df565b60405161006691906102bf565b60405180910390f35b34801561007b57600080fd5b506100966004803603810190610091919061033d565b6100e7565b6040516100a391906102bf565b60405180910390f35b3480156100b857600080fd5b506100d360048036038101906100ce9190610396565b6100ff565b005b6100dd61024f565b005b600047905090565b60006020528060005260406000206000915090505481565b806000803373ffffffffffffffffffffffffffffffffffffffff1673ffffffffffffffffffffffffffffffffffffffff16815260200190815260200160002054101561014a57600080fd5b60003373ffffffffffffffffffffffffffffffffffffffff1682604051610170906103f4565b60006040518083038185875af1925050503d80600081146101ad576040519150601f19603f3d011682016040523d82523d6000602084013e6101b2565b606091505b50509050806101f6576040517f08c379a00000000000000000000000000000000000000000000000000000000081526004016101ed90610466565b60405180910390fd5b816000803373ffffffffffffffffffffffffffffffffffffffff1673ffffffffffffffffffffffffffffffffffffffff168152602001908152602001600020600082825461024491906104b5565b925050819055505050565b346000803373ffffffffffffffffffffffffffffffffffffffff1673ffffffffffffffffffffffffffffffffffffffff168152602001908152602001600020600082825461029d91906104e9565b92505081905550565b6000819050919050565b6102b9816102a6565b82525050565b60006020820190506102d460008301846102b0565b92915050565b600080fd5b600073ffffffffffffffffffffffffffffffffffffffff82169050919050565b600061030a826102df565b9050919050565b61031a816102ff565b811461032557600080fd5b50565b60008135905061033781610311565b92915050565b600060208284031215610353576103526102da565b5b600061036184828501610328565b91505092915050565b610373816102a6565b811461037e57600080fd5b50565b6000813590506103908161036a565b92915050565b6000602082840312156103ac576103ab6102da565b5b60006103ba84828501610381565b91505092915050565b600081905092915050565b50565b60006103de6000836103c3565b91506103e9826103ce565b600082019050919050565b60006103ff826103d1565b9150819050919050565b600082825260208201905092915050565b7f4661696c656420746f2073656e74204574686572000000000000000000000000600082015250565b6000610450601483610409565b915061045b8261041a565b602082019050919050565b6000602082019050818103600083015261047f81610443565b9050919050565b7f4e487b7100000000000000000000000000000000000000000000000000000000600052601160045260246000fd5b60006104c0826102a6565b91506104cb836102a6565b92508282039050818111156104e3576104e2610486565b5b92915050565b60006104f4826102a6565b91506104ff836102a6565b925082820190508082111561051757610516610486565b5b9291505056fea264697066735822122092a13ffb3f4cffedf29519169294ff50b7e9efdb236310f34cb50677b3de7c8664736f6c63430008110033",
  "linkReferences": {},
  "deployedLinkReferences": {}
}